{
  "address": "0xFe9eF89cc9463C2F271465Cdacc8A982211AB98D",
  "abi": [
    {
      "inputs": [
        {
          "internalType": "address",
          "name": "initialOwner",
          "type": "address"
        }
      ],
      "stateMutability": "nonpayable",
      "type": "constructor"
    },
    {
      "inputs": [
        {
          "internalType": "address",
          "name": "spender",
          "type": "address"
        },
        {
          "internalType": "uint256",
          "name": "allowance",
          "type": "uint256"
        },
        {
          "internalType": "uint256",
          "name": "needed",
          "type": "uint256"
        }
      ],
      "name": "ERC20InsufficientAllowance",
      "type": "error"
    },
    {
      "inputs": [
        {
          "internalType": "address",
          "name": "sender",
          "type": "address"
        },
        {
          "internalType": "uint256",
          "name": "balance",
          "type": "uint256"
        },
        {
          "internalType": "uint256",
          "name": "needed",
          "type": "uint256"
        }
      ],
      "name": "ERC20InsufficientBalance",
      "type": "error"
    },
    {
      "inputs": [
        {
          "internalType": "address",
          "name": "approver",
          "type": "address"
        }
      ],
      "name": "ERC20InvalidApprover",
      "type": "error"
    },
    {
      "inputs": [
        {
          "internalType": "address",
          "name": "receiver",
          "type": "address"
        }
      ],
      "name": "ERC20InvalidReceiver",
      "type": "error"
    },
    {
      "inputs": [
        {
          "internalType": "address",
          "name": "sender",
          "type": "address"
        }
      ],
      "name": "ERC20InvalidSender",
      "type": "error"
    },
    {
      "inputs": [
        {
          "internalType": "address",
          "name": "spender",
          "type": "address"
        }
      ],
      "name": "ERC20InvalidSpender",
      "type": "error"
    },
    {
      "inputs": [
        {
          "internalType": "address",
          "name": "owner",
          "type": "address"
        }
      ],
      "name": "OwnableInvalidOwner",
      "type": "error"
    },
    {
      "inputs": [
        {
          "internalType": "address",
          "name": "account",
          "type": "address"
        }
      ],
      "name": "OwnableUnauthorizedAccount",
      "type": "error"
    },
    {
      "anonymous": false,
      "inputs": [
        {
          "indexed": true,
          "internalType": "address",
          "name": "owner",
          "type": "address"
        },
        {
          "indexed": true,
          "internalType": "address",
          "name": "spender",
          "type": "address"
        },
        {
          "indexed": false,
          "internalType": "uint256",
          "name": "value",
          "type": "uint256"
        }
      ],
      "name": "Approval",
      "type": "event"
    },
    {
      "anonymous": false,
      "inputs": [
        {
          "indexed": true,
          "internalType": "address",
          "name": "provider",
          "type": "address"
        },
        {
          "indexed": true,
          "internalType": "address",
          "name": "tokenA",
          "type": "address"
        },
        {
          "indexed": true,
          "internalType": "address",
          "name": "tokenB",
          "type": "address"
        },
        {
          "indexed": false,
          "internalType": "uint256",
          "name": "amountA",
          "type": "uint256"
        },
        {
          "indexed": false,
          "internalType": "uint256",
          "name": "amountB",
          "type": "uint256"
        },
        {
          "indexed": false,
          "internalType": "uint256",
          "name": "liquidity",
          "type": "uint256"
        }
      ],
      "name": "LiquidityAdded",
      "type": "event"
    },
    {
      "anonymous": false,
      "inputs": [
        {
          "indexed": true,
          "internalType": "address",
          "name": "provider",
          "type": "address"
        },
        {
          "indexed": true,
          "internalType": "address",
          "name": "tokenA",
          "type": "address"
        },
        {
          "indexed": true,
          "internalType": "address",
          "name": "tokenB",
          "type": "address"
        },
        {
          "indexed": false,
          "internalType": "uint256",
          "name": "amountA",
          "type": "uint256"
        },
        {
          "indexed": false,
          "internalType": "uint256",
          "name": "amountB",
          "type": "uint256"
        }
      ],
      "name": "LiquidityRemoved",
      "type": "event"
    },
    {
      "anonymous": false,
      "inputs": [
        {
          "indexed": true,
          "internalType": "address",
          "name": "previousOwner",
          "type": "address"
        },
        {
          "indexed": true,
          "internalType": "address",
          "name": "newOwner",
          "type": "address"
        }
      ],
      "name": "OwnershipTransferred",
      "type": "event"
    },
    {
      "anonymous": false,
      "inputs": [
        {
          "indexed": true,
          "internalType": "address",
          "name": "user",
          "type": "address"
        },
        {
          "indexed": true,
          "internalType": "address",
          "name": "tokenIn",
          "type": "address"
        },
        {
          "indexed": true,
          "internalType": "address",
          "name": "tokenOut",
          "type": "address"
        },
        {
          "indexed": false,
          "internalType": "uint256",
          "name": "amountIn",
          "type": "uint256"
        },
        {
          "indexed": false,
          "internalType": "uint256",
          "name": "amountOut",
          "type": "uint256"
        }
      ],
      "name": "TokensSwapped",
      "type": "event"
    },
    {
      "anonymous": false,
      "inputs": [
        {
          "indexed": true,
          "internalType": "address",
          "name": "from",
          "type": "address"
        },
        {
          "indexed": true,
          "internalType": "address",
          "name": "to",
          "type": "address"
        },
        {
          "indexed": false,
          "internalType": "uint256",
          "name": "value",
          "type": "uint256"
        }
      ],
      "name": "Transfer",
      "type": "event"
    },
    {
      "inputs": [
        {
          "internalType": "address",
          "name": "tokenA",
          "type": "address"
        },
        {
          "internalType": "address",
          "name": "tokenB",
          "type": "address"
        },
        {
          "internalType": "uint256",
          "name": "amountADesired",
          "type": "uint256"
        },
        {
          "internalType": "uint256",
          "name": "amountBDesired",
          "type": "uint256"
        },
        {
          "internalType": "uint256",
          "name": "amountAMin",
          "type": "uint256"
        },
        {
          "internalType": "uint256",
          "name": "amountBMin",
          "type": "uint256"
        },
        {
          "internalType": "address",
          "name": "to",
          "type": "address"
        },
        {
          "internalType": "uint256",
          "name": "deadline",
          "type": "uint256"
        }
      ],
      "name": "addLiquidity",
      "outputs": [
        {
          "internalType": "uint256",
          "name": "amountA",
          "type": "uint256"
        },
        {
          "internalType": "uint256",
          "name": "amountB",
          "type": "uint256"
        },
        {
          "internalType": "uint256",
          "name": "liquidity",
          "type": "uint256"
        }
      ],
      "stateMutability": "nonpayable",
      "type": "function"
    },
    {
      "inputs": [
        {
          "internalType": "address",
          "name": "owner",
          "type": "address"
        },
        {
          "internalType": "address",
          "name": "spender",
          "type": "address"
        }
      ],
      "name": "allowance",
      "outputs": [
        {
          "internalType": "uint256",
          "name": "",
          "type": "uint256"
        }
      ],
      "stateMutability": "view",
      "type": "function"
    },
    {
      "inputs": [
        {
          "internalType": "address",
          "name": "spender",
          "type": "address"
        },
        {
          "internalType": "uint256",
          "name": "value",
          "type": "uint256"
        }
      ],
      "name": "approve",
      "outputs": [
        {
          "internalType": "bool",
          "name": "",
          "type": "bool"
        }
      ],
      "stateMutability": "nonpayable",
      "type": "function"
    },
    {
      "inputs": [
        {
          "internalType": "address",
          "name": "account",
          "type": "address"
        }
      ],
      "name": "balanceOf",
      "outputs": [
        {
          "internalType": "uint256",
          "name": "",
          "type": "uint256"
        }
      ],
      "stateMutability": "view",
      "type": "function"
    },
    {
      "inputs": [],
      "name": "decimals",
      "outputs": [
        {
          "internalType": "uint8",
          "name": "",
          "type": "uint8"
        }
      ],
      "stateMutability": "view",
      "type": "function"
    },
    {
      "inputs": [
        {
          "internalType": "uint256",
          "name": "amountIn",
          "type": "uint256"
        },
        {
          "internalType": "uint256",
          "name": "reserveIn",
          "type": "uint256"
        },
        {
          "internalType": "uint256",
          "name": "reserveOut",
          "type": "uint256"
        }
      ],
      "name": "getAmountOut",
      "outputs": [
        {
          "internalType": "uint256",
          "name": "amountOut",
          "type": "uint256"
        }
      ],
      "stateMutability": "pure",
      "type": "function"
    },
    {
      "inputs": [
        {
          "internalType": "address",
          "name": "tokenA",
          "type": "address"
        },
        {
          "internalType": "address",
          "name": "tokenB",
          "type": "address"
        }
      ],
      "name": "getPrice",
      "outputs": [
        {
          "internalType": "uint256",
          "name": "price",
          "type": "uint256"
        }
      ],
      "stateMutability": "view",
      "type": "function"
    },
    {
      "inputs": [
        {
          "internalType": "address",
          "name": "tokenA",
          "type": "address"
        },
        {
          "internalType": "address",
          "name": "tokenB",
          "type": "address"
        }
      ],
      "name": "getReserves",
      "outputs": [
        {
          "internalType": "uint256",
          "name": "reserveA",
          "type": "uint256"
        },
        {
          "internalType": "uint256",
          "name": "reserveB",
          "type": "uint256"
        }
      ],
      "stateMutability": "view",
      "type": "function"
    },
    {
      "inputs": [],
      "name": "name",
      "outputs": [
        {
          "internalType": "string",
          "name": "",
          "type": "string"
        }
      ],
      "stateMutability": "view",
      "type": "function"
    },
    {
      "inputs": [],
      "name": "owner",
      "outputs": [
        {
          "internalType": "address",
          "name": "",
          "type": "address"
        }
      ],
      "stateMutability": "view",
      "type": "function"
    },
    {
      "inputs": [
        {
          "internalType": "address",
          "name": "tokenA",
          "type": "address"
        },
        {
          "internalType": "address",
          "name": "tokenB",
          "type": "address"
        },
        {
          "internalType": "uint256",
          "name": "liquidity",
          "type": "uint256"
        },
        {
          "internalType": "uint256",
          "name": "amountAMin",
          "type": "uint256"
        },
        {
          "internalType": "uint256",
          "name": "amountBMin",
          "type": "uint256"
        },
        {
          "internalType": "address",
          "name": "to",
          "type": "address"
        },
        {
          "internalType": "uint256",
          "name": "deadline",
          "type": "uint256"
        }
      ],
      "name": "removeLiquidity",
      "outputs": [
        {
          "internalType": "uint256",
          "name": "amountA",
          "type": "uint256"
        },
        {
          "internalType": "uint256",
          "name": "amountB",
          "type": "uint256"
        }
      ],
      "stateMutability": "nonpayable",
      "type": "function"
    },
    {
      "inputs": [],
      "name": "renounceOwnership",
      "outputs": [],
      "stateMutability": "nonpayable",
      "type": "function"
    },
    {
      "inputs": [
        {
          "internalType": "uint256",
          "name": "amountIn",
          "type": "uint256"
        },
        {
          "internalType": "uint256",
          "name": "amountOutMin",
          "type": "uint256"
        },
        {
          "internalType": "address[]",
          "name": "path",
          "type": "address[]"
        },
        {
          "internalType": "address",
          "name": "to",
          "type": "address"
        },
        {
          "internalType": "uint256",
          "name": "deadline",
          "type": "uint256"
        }
      ],
      "name": "swapExactTokensForTokens",
      "outputs": [
        {
          "internalType": "uint256[]",
          "name": "amounts",
          "type": "uint256[]"
        }
      ],
      "stateMutability": "nonpayable",
      "type": "function"
    },
    {
      "inputs": [],
      "name": "symbol",
      "outputs": [
        {
          "internalType": "string",
          "name": "",
          "type": "string"
        }
      ],
      "stateMutability": "view",
      "type": "function"
    },
    {
      "inputs": [],
      "name": "totalSupply",
      "outputs": [
        {
          "internalType": "uint256",
          "name": "",
          "type": "uint256"
        }
      ],
      "stateMutability": "view",
      "type": "function"
    },
    {
      "inputs": [
        {
          "internalType": "address",
          "name": "to",
          "type": "address"
        },
        {
          "internalType": "uint256",
          "name": "value",
          "type": "uint256"
        }
      ],
      "name": "transfer",
      "outputs": [
        {
          "internalType": "bool",
          "name": "",
          "type": "bool"
        }
      ],
      "stateMutability": "nonpayable",
      "type": "function"
    },
    {
      "inputs": [
        {
          "internalType": "address",
          "name": "from",
          "type": "address"
        },
        {
          "internalType": "address",
          "name": "to",
          "type": "address"
        },
        {
          "internalType": "uint256",
          "name": "value",
          "type": "uint256"
        }
      ],
      "name": "transferFrom",
      "outputs": [
        {
          "internalType": "bool",
          "name": "",
          "type": "bool"
        }
      ],
      "stateMutability": "nonpayable",
      "type": "function"
    },
    {
      "inputs": [
        {
          "internalType": "address",
          "name": "newOwner",
          "type": "address"
        }
      ],
      "name": "transferOwnership",
      "outputs": [],
      "stateMutability": "nonpayable",
      "type": "function"
    }
  ],
  "transactionHash": "0x15ce5cb4189990cd537c22336c876796399314b8dcef6f2f19d3892693336e12",
  "args": [
    "0x6080164AE22d7b1b4e8f3A6808aAE90f1c61f4A3"
  ],
  "numDeployments": 1,
  "solcInputHash": "0b7dda7432547185ed31b40a3c9a1ef5",
  "bytecode": "0x608060405234801561001057600080fd5b50604051611c37380380611c3783398101604081905261002f9161011b565b806040518060400160405280600781526020016626282a37b5b2b760c91b8152506040518060400160405280600381526020016213141560ea1b815250816003908161007b91906101ea565b50600461008882826101ea565b5050506001600160a01b0381166100b957604051631e4fbdf760e01b81526000600482015260240160405180910390fd5b6100c2816100c9565b50506102a8565b600580546001600160a01b038381166001600160a01b0319831681179093556040519116919082907f8be0079c531659141344cd1fd0a4f28419497f9722a3daafe3b4186f6b6457e090600090a35050565b60006020828403121561012d57600080fd5b81516001600160a01b038116811461014457600080fd5b9392505050565b634e487b7160e01b600052604160045260246000fd5b600181811c9082168061017557607f821691505b60208210810361019557634e487b7160e01b600052602260045260246000fd5b50919050565b601f8211156101e557806000526020600020601f840160051c810160208510156101c25750805b601f840160051c820191505b818110156101e257600081556001016101ce565b50505b505050565b81516001600160401b038111156102035761020361014b565b610217816102118454610161565b8461019b565b6020601f82116001811461024b57600083156102335750848201515b600019600385901b1c1916600184901b1784556101e2565b600084815260208120601f198516915b8281101561027b578785015182556020948501946001909201910161025b565b50848210156102995786840151600019600387901b60f8161c191681555b50505050600190811b01905550565b611980806102b76000396000f3fe608060405234801561001057600080fd5b50600436106101165760003560e01c80638da5cb5b116100a2578063baa2abde11610071578063baa2abde1461023f578063d52bb6f414610267578063dd62ed3e1461027a578063e8e33700146102b3578063f2fde38b146102e157600080fd5b80638da5cb5b146101f657806395d89b4114610211578063a9059cbb14610219578063ac41865a1461022c57600080fd5b806323b872dd116100e957806323b872dd14610181578063313ce5671461019457806338ed1739146101a357806370a08231146101c3578063715018a6146101ec57600080fd5b8063054d50d41461011b57806306fdde0314610141578063095ea7b31461015657806318160ddd14610179575b600080fd5b61012e610129366004611537565b6102f4565b6040519081526020015b60405180910390f35b6101496103b4565b6040516101389190611563565b6101696101643660046115c8565b610446565b6040519015158152602001610138565b60025461012e565b61016961018f3660046115f2565b610460565b60405160128152602001610138565b6101b66101b136600461162f565b610484565b60405161013891906116d5565b61012e6101d1366004611718565b6001600160a01b031660009081526020819052604090205490565b6101f4610809565b005b6005546040516001600160a01b039091168152602001610138565b61014961081d565b6101696102273660046115c8565b61082c565b61012e61023a36600461173a565b61083a565b61025261024d36600461176d565b6108b4565b60408051928352602083019190915201610138565b61025261027536600461173a565b610b13565b61012e61028836600461173a565b6001600160a01b03918216600090815260016020908152604080832093909416825291909152205490565b6102c66102c13660046117da565b610b8d565b60408051938452602084019290925290820152606001610138565b6101f46102ef366004611718565b610d74565b600080841161033f5760405162461bcd60e51b81526020600482015260126024820152710416d6f756e74206d757374206265203e20360741b60448201526064015b60405180910390fd5b60008311801561034f5750600082115b61038e5760405162461bcd60e51b815260206004820152601060248201526f496e76616c696420726573657276657360801b6044820152606401610336565b6103988484611866565b6103a28386611879565b6103ac9190611890565b949350505050565b6060600380546103c3906118b2565b80601f01602080910402602001604051908101604052809291908181526020018280546103ef906118b2565b801561043c5780601f106104115761010080835404028352916020019161043c565b820191906000526020600020905b81548152906001019060200180831161041f57829003601f168201915b5050505050905090565b600033610454818585610db2565b60019150505b92915050565b60003361046e858285610dc4565b610479858585610e42565b506001949350505050565b6060814211156104c95760405162461bcd60e51b815260206004820152601060248201526f111958591b1a5b9948195e1c1a5c995960821b6044820152606401610336565b600284146105195760405162461bcd60e51b815260206004820152601b60248201527f4f6e6c7920312d7374657020737761707320737570706f7274656400000000006044820152606401610336565b60008585600081811061052e5761052e6118e6565b90506020020160208101906105439190611718565b905060008686600181811061055a5761055a6118e6565b905060200201602081019061056f9190611718565b905060008061057e8484610b13565b915091506000821180156105925750600081115b6105cd5760405162461bcd60e51b815260206004820152600c60248201526b4e6f206c697175696469747960a01b6044820152606401610336565b604051630153543560e21b8152600481018c90526024810183905260448101829052600090309063054d50d490606401602060405180830381865afa15801561061a573d6000803e3d6000fd5b505050506040513d601f19601f8201168201806040525081019061063e91906118fc565b90508a8110156106905760405162461bcd60e51b815260206004820152601a60248201527f496e73756666696369656e74206f757470757420616d6f756e740000000000006044820152606401610336565b6040516323b872dd60e01b8152336004820152306024820152604481018d90526001600160a01b038616906323b872dd906064016020604051808303816000875af11580156106e3573d6000803e3d6000fd5b505050506040513d601f19601f820116820180604052508101906107079190611915565b5060405163a9059cbb60e01b81526001600160a01b0389811660048301526024820183905285169063a9059cbb906044016020604051808303816000875af1158015610757573d6000803e3d6000fd5b505050506040513d601f19601f8201168201806040525081019061077b9190611915565b5061079a858561078b8f87611866565b6107958587611937565b610ea1565b60408051600280825260608201835290916020830190803683370190505095508b866000815181106107ce576107ce6118e6565b60200260200101818152505080866001815181106107ee576107ee6118e6565b60200260200101818152505050505050509695505050505050565b610811610f04565b61081b6000610f31565b565b6060600480546103c3906118b2565b600033610454818585610e42565b60008060006108498585610b13565b915091506000821161088e5760405162461bcd60e51b815260206004820152600e60248201526d4e6f206c6971756964697479204160901b6044820152606401610336565b816108a182670de0b6b3a7640000611879565b6108ab9190611890565b95945050505050565b600080824211156108f15760405162461bcd60e51b8152602060048201526007602482015266115e1c1a5c995960ca1b6044820152606401610336565b60006108fc60025490565b905060008061090b8c8c610b13565b90925090508261091b838c611879565b6109259190611890565b945082610932828c611879565b61093c9190611890565b9350888510156109765760405162461bcd60e51b81526020600482015260056024820152644d696e204160d81b6044820152606401610336565b878410156109ae5760405162461bcd60e51b815260206004820152600560248201526426b4b7102160d91b6044820152606401610336565b6109b8338b610f83565b60405163a9059cbb60e01b81526001600160a01b038881166004830152602482018790528d169063a9059cbb906044016020604051808303816000875af1158015610a07573d6000803e3d6000fd5b505050506040513d601f19601f82011682018060405250810190610a2b9190611915565b5060405163a9059cbb60e01b81526001600160a01b038881166004830152602482018690528c169063a9059cbb906044016020604051808303816000875af1158015610a7b573d6000803e3d6000fd5b505050506040513d601f19601f82011682018060405250810190610a9f9190611915565b50610ab98c8c610aaf8886611937565b6107958886611937565b60408051868152602081018690526001600160a01b03808e1692908f169133917fd0aab0ed3b13a2551c0f217aa790c138f132954984c5d047ae27188f7205de11910160405180910390a450505097509795505050505050565b600080600080610b238686610fbd565b6001600160a01b03808316600081815260066020908152604080832085871684528252918290208251808401909352805483526001015490820152939550919350881614610b775760208101518151610b7f565b805160208201515b909890975095505050505050565b600080600083421115610bcc5760405162461bcd60e51b8152602060048201526007602482015266115e1c1a5c995960ca1b6044820152606401610336565b600080610bd98d8d610b13565b91509150610beb82828d8d8d8d611097565b6040516323b872dd60e01b81523360048201523060248201526044810183905291965094506001600160a01b038e16906323b872dd906064016020604051808303816000875af1158015610c43573d6000803e3d6000fd5b505050506040513d601f19601f82011682018060405250810190610c679190611915565b506040516323b872dd60e01b8152336004820152306024820152604481018590526001600160a01b038d16906323b872dd906064016020604051808303816000875af1158015610cbb573d6000803e3d6000fd5b505050506040513d601f19601f82011682018060405250810190610cdf9190611915565b50610cec85858484611188565b9250610cf88784611292565b610d118d8d610d078886611866565b6107958886611866565b60408051868152602081018690529081018490526001600160a01b03808e1691908f169033907f43c967b388d3a4ccad3f7ab80167852e322e5a3fde9893f530252281b2ae8b709060600160405180910390a45050985098509895505050505050565b610d7c610f04565b6001600160a01b038116610da657604051631e4fbdf760e01b815260006004820152602401610336565b610daf81610f31565b50565b610dbf83838360016112c8565b505050565b6001600160a01b038381166000908152600160209081526040808320938616835292905220546000198114610e3c5781811015610e2d57604051637dc7a0d960e11b81526001600160a01b03841660048201526024810182905260448101839052606401610336565b610e3c848484840360006112c8565b50505050565b6001600160a01b038316610e6c57604051634b637e8f60e11b815260006004820152602401610336565b6001600160a01b038216610e965760405163ec442f0560e01b815260006004820152602401610336565b610dbf83838361139d565b600080610eae8686610fbd565b6001600160a01b03808316600081815260066020908152604080832085871684529091529020939550919350881603610ef05784815560018101849055610efb565b838155600181018590555b50505050505050565b6005546001600160a01b0316331461081b5760405163118cdaa760e01b8152336004820152602401610336565b600580546001600160a01b038381166001600160a01b0319831681179093556040519116919082907f8be0079c531659141344cd1fd0a4f28419497f9722a3daafe3b4186f6b6457e090600090a35050565b6001600160a01b038216610fad57604051634b637e8f60e11b815260006004820152602401610336565b610fb98260008361139d565b5050565b600080826001600160a01b0316846001600160a01b03160361100e5760405162461bcd60e51b815260206004820152600a60248201526929b0b6b2902a37b5b2b760b11b6044820152606401610336565b6001600160a01b0384161580159061102e57506001600160a01b03831615155b6110695760405162461bcd60e51b815260206004820152600c60248201526b5a65726f206164647265737360a01b6044820152606401610336565b826001600160a01b0316846001600160a01b03161061108957828461108c565b83835b909590945092505050565b600080871580156110a6575086155b156110b557508490508361117d565b6000886110c28989611879565b6110cc9190611890565b905085811161111e57838110156111145760405162461bcd60e51b815260206004820152600c60248201526b2637bb9030b6b7bab73a102160a11b6044820152606401610336565b869250905061117d565b60008861112b8b89611879565b6111359190611890565b9050858110156111765760405162461bcd60e51b815260206004820152600c60248201526b4c6f7720616d6f756e74204160a01b6044820152606401610336565b9250859150505b965096945050505050565b60008061119460025490565b9050806000036111b7576111b06111ab8688611879565b6114c7565b9150611248565b6000841180156111c75750600083115b6112025760405162461bcd60e51b815260206004820152600c60248201526b42616420726573657276657360a01b6044820152606401610336565b60008461120f8389611879565b6112199190611890565b90506000846112288489611879565b6112329190611890565b90508082106112415780611243565b815b935050505b600082116112895760405162461bcd60e51b815260206004820152600e60248201526d5a65726f206c697175696469747960901b6044820152606401610336565b50949350505050565b6001600160a01b0382166112bc5760405163ec442f0560e01b815260006004820152602401610336565b610fb96000838361139d565b6001600160a01b0384166112f25760405163e602df0560e01b815260006004820152602401610336565b6001600160a01b03831661131c57604051634a1406b160e11b815260006004820152602401610336565b6001600160a01b0380851660009081526001602090815260408083209387168352929052208290558015610e3c57826001600160a01b0316846001600160a01b03167f8c5be1e5ebec7d5bd14f71427d1e84f3dd0314c0f7b2291e5b200ac8c7c3b9258460405161138f91815260200190565b60405180910390a350505050565b6001600160a01b0383166113c85780600260008282546113bd9190611866565b9091555061143a9050565b6001600160a01b0383166000908152602081905260409020548181101561141b5760405163391434e360e21b81526001600160a01b03851660048201526024810182905260448101839052606401610336565b6001600160a01b03841660009081526020819052604090209082900390555b6001600160a01b03821661145657600280548290039055611475565b6001600160a01b03821660009081526020819052604090208054820190555b816001600160a01b0316836001600160a01b03167fddf252ad1be2c89b69c2b068fc378daa952ba7f163c4a11628f55a4df523b3ef836040516114ba91815260200190565b60405180910390a3505050565b6000600382111561152857508060006114e1600283611890565b6114ec906001611866565b90505b81811015611522579050806002816115078186611890565b6115119190611866565b61151b9190611890565b90506114ef565b50919050565b8115611532575060015b919050565b60008060006060848603121561154c57600080fd5b505081359360208301359350604090920135919050565b602081526000825180602084015260005b818110156115915760208186018101516040868401015201611574565b506000604082850101526040601f19601f83011684010191505092915050565b80356001600160a01b038116811461153257600080fd5b600080604083850312156115db57600080fd5b6115e4836115b1565b946020939093013593505050565b60008060006060848603121561160757600080fd5b611610846115b1565b925061161e602085016115b1565b929592945050506040919091013590565b60008060008060008060a0878903121561164857600080fd5b8635955060208701359450604087013567ffffffffffffffff81111561166d57600080fd5b8701601f8101891361167e57600080fd5b803567ffffffffffffffff81111561169557600080fd5b8960208260051b84010111156116aa57600080fd5b602091909101945092506116c0606088016115b1565b95989497509295919493608090920135925050565b602080825282518282018190526000918401906040840190835b8181101561170d5783518352602093840193909201916001016116ef565b509095945050505050565b60006020828403121561172a57600080fd5b611733826115b1565b9392505050565b6000806040838503121561174d57600080fd5b611756836115b1565b9150611764602084016115b1565b90509250929050565b600080600080600080600060e0888a03121561178857600080fd5b611791886115b1565b965061179f602089016115b1565b95506040880135945060608801359350608088013592506117c260a089016115b1565b96999598509396929591949193505060c09091013590565b600080600080600080600080610100898b0312156117f757600080fd5b611800896115b1565b975061180e60208a016115b1565b965060408901359550606089013594506080890135935060a0890135925061183860c08a016115b1565b979a969950949793969295919450919260e001359150565b634e487b7160e01b600052601160045260246000fd5b8082018082111561045a5761045a611850565b808202811582820484141761045a5761045a611850565b6000826118ad57634e487b7160e01b600052601260045260246000fd5b500490565b600181811c908216806118c657607f821691505b60208210810361152257634e487b7160e01b600052602260045260246000fd5b634e487b7160e01b600052603260045260246000fd5b60006020828403121561190e57600080fd5b5051919050565b60006020828403121561192757600080fd5b8151801515811461173357600080fd5b8181038181111561045a5761045a61185056fea2646970667358221220c5a48eb4f2bac970a508092d91e422e0f7dd4a8ead6b48e069dadaf358bacdb964736f6c634300081e0033",
  "devdoc": {
    "author": "Juan Cruz Gonzalez",
    "errors": {
      "ERC20InsufficientAllowance(address,uint256,uint256)": [
        {
          "details": "Indicates a failure with the `spender`s `allowance`. Used in transfers.",
          "params": {
            "allowance": "Amount of tokens a `spender` is allowed to operate with.",
            "needed": "Minimum amount required to perform a transfer.",
            "spender": "Address that may be allowed to operate on tokens without being their owner."
          }
        }
      ],
      "ERC20InsufficientBalance(address,uint256,uint256)": [
        {
          "details": "Indicates an error related to the current `balance` of a `sender`. Used in transfers.",
          "params": {
            "balance": "Current balance for the interacting account.",
            "needed": "Minimum amount required to perform a transfer.",
            "sender": "Address whose tokens are being transferred."
          }
        }
      ],
      "ERC20InvalidApprover(address)": [
        {
          "details": "Indicates a failure with the `approver` of a token to be approved. Used in approvals.",
          "params": {
            "approver": "Address initiating an approval operation."
          }
        }
      ],
      "ERC20InvalidReceiver(address)": [
        {
          "details": "Indicates a failure with the token `receiver`. Used in transfers.",
          "params": {
            "receiver": "Address to which tokens are being transferred."
          }
        }
      ],
      "ERC20InvalidSender(address)": [
        {
          "details": "Indicates a failure with the token `sender`. Used in transfers.",
          "params": {
            "sender": "Address whose tokens are being transferred."
          }
        }
      ],
      "ERC20InvalidSpender(address)": [
        {
          "details": "Indicates a failure with the `spender` to be approved. Used in approvals.",
          "params": {
            "spender": "Address that may be allowed to operate on tokens without being their owner."
          }
        }
      ],
      "OwnableInvalidOwner(address)": [
        {
          "details": "The owner is not a valid owner account. (eg. `address(0)`)"
        }
      ],
      "OwnableUnauthorizedAccount(address)": [
        {
          "details": "The caller account is not authorized to perform an operation."
        }
      ]
    },
    "events": {
      "Approval(address,address,uint256)": {
        "details": "Emitted when the allowance of a `spender` for an `owner` is set by a call to {approve}. `value` is the new allowance."
      },
      "Transfer(address,address,uint256)": {
        "details": "Emitted when `value` tokens are moved from one account (`from`) to another (`to`). Note that `value` may be zero."
      }
    },
    "kind": "dev",
    "methods": {
      "addLiquidity(address,address,uint256,uint256,uint256,uint256,address,uint256)": {
        "params": {
          "amountADesired": "Desired amount of tokenA",
          "amountAMin": "Minimum accepted amount of tokenA",
          "amountBDesired": "Desired amount of tokenB",
          "amountBMin": "Minimum accepted amount of tokenB",
          "deadline": "Timestamp after which the transaction reverts",
          "to": "Address to receive LP tokens",
          "tokenA": "First token address",
          "tokenB": "Second token address"
        }
      },
      "allowance(address,address)": {
        "details": "See {IERC20-allowance}."
      },
      "approve(address,uint256)": {
        "details": "See {IERC20-approve}. NOTE: If `value` is the maximum `uint256`, the allowance is not updated on `transferFrom`. This is semantically equivalent to an infinite approval. Requirements: - `spender` cannot be the zero address."
      },
      "balanceOf(address)": {
        "details": "See {IERC20-balanceOf}."
      },
      "constructor": {
        "params": {
          "initialOwner": "The address that will own the initial LP tokens"
        }
      },
      "decimals()": {
        "details": "Returns the number of decimals used to get its user representation. For example, if `decimals` equals `2`, a balance of `505` tokens should be displayed to a user as `5.05` (`505 / 10 ** 2`). Tokens usually opt for a value of 18, imitating the relationship between Ether and Wei. This is the default value returned by this function, unless it's overridden. NOTE: This information is only used for _display_ purposes: it in no way affects any of the arithmetic of the contract, including {IERC20-balanceOf} and {IERC20-transfer}."
      },
      "name()": {
        "details": "Returns the name of the token."
      },
      "owner()": {
        "details": "Returns the address of the current owner."
      },
      "renounceOwnership()": {
        "details": "Leaves the contract without owner. It will not be possible to call `onlyOwner` functions. Can only be called by the current owner. NOTE: Renouncing ownership will leave the contract without an owner, thereby disabling any functionality that is only available to the owner."
      },
      "swapExactTokensForTokens(uint256,uint256,address[],address,uint256)": {
        "params": {
          "amountIn": "Amount of input tokens",
          "amountOutMin": "Minimum accepted output",
          "deadline": "Timestamp after which the tx reverts",
          "path": "Array with [tokenIn, tokenOut]",
          "to": "Recipient address"
        }
      },
      "symbol()": {
        "details": "Returns the symbol of the token, usually a shorter version of the name."
      },
      "totalSupply()": {
        "details": "See {IERC20-totalSupply}."
      },
      "transfer(address,uint256)": {
        "details": "See {IERC20-transfer}. Requirements: - `to` cannot be the zero address. - the caller must have a balance of at least `value`."
      },
      "transferFrom(address,address,uint256)": {
        "details": "See {IERC20-transferFrom}. Emits an {Approval} event indicating the updated allowance. This is not required by the EIP. See the note at the beginning of {ERC20}. NOTE: Does not update the allowance if the current allowance is the maximum `uint256`. Requirements: - `from` and `to` cannot be the zero address. - `from` must have a balance of at least `value`. - the caller must have allowance for ``from``'s tokens of at least `value`."
      },
      "transferOwnership(address)": {
        "details": "Transfers ownership of the contract to a new account (`newOwner`). Can only be called by the current owner."
      }
    },
    "title": "SimpleSwap",
    "version": 1
  },
  "userdoc": {
    "events": {
      "LiquidityAdded(address,address,address,uint256,uint256,uint256)": {
        "notice": "Emitted when liquidity is added to the pool"
      },
      "LiquidityRemoved(address,address,address,uint256,uint256)": {
        "notice": "Emitted when liquidity is removed from the pool"
      },
      "TokensSwapped(address,address,address,uint256,uint256)": {
        "notice": "Emitted when a token swap occurs"
      }
    },
    "kind": "user",
    "methods": {
      "addLiquidity(address,address,uint256,uint256,uint256,uint256,address,uint256)": {
        "notice": "Adds liquidity to the pool"
      },
      "getAmountOut(uint256,uint256,uint256)": {
        "notice": "Estimates output amount for a given input"
      },
      "getPrice(address,address)": {
        "notice": "Gets price of tokenA in terms of tokenB"
      },
      "getReserves(address,address)": {
        "notice": "Returns reserves for a token pair"
      },
      "removeLiquidity(address,address,uint256,uint256,uint256,address,uint256)": {
        "notice": "Removes liquidity from the pool"
      },
      "swapExactTokensForTokens(uint256,uint256,address[],address,uint256)": {
        "notice": "Swaps a fixed amount of input tokens for as many output tokens as possible"
      }
    },
    "notice": "A simple automated market maker (AMM) supporting basic token swaps and liquidity management",
    "version": 1
  },
  "storageLayout": {
    "storage": [
      {
        "astId": 307,
        "contract": "contracts/SimpleSwap.sol:SimpleSwap",
        "label": "_balances",
        "offset": 0,
        "slot": "0",
        "type": "t_mapping(t_address,t_uint256)"
      },
      {
        "astId": 313,
        "contract": "contracts/SimpleSwap.sol:SimpleSwap",
        "label": "_allowances",
        "offset": 0,
        "slot": "1",
        "type": "t_mapping(t_address,t_mapping(t_address,t_uint256))"
      },
      {
        "astId": 315,
        "contract": "contracts/SimpleSwap.sol:SimpleSwap",
        "label": "_totalSupply",
        "offset": 0,
        "slot": "2",
        "type": "t_uint256"
      },
      {
        "astId": 317,
        "contract": "contracts/SimpleSwap.sol:SimpleSwap",
        "label": "_name",
        "offset": 0,
        "slot": "3",
        "type": "t_string_storage"
      },
      {
        "astId": 319,
        "contract": "contracts/SimpleSwap.sol:SimpleSwap",
        "label": "_symbol",
        "offset": 0,
        "slot": "4",
        "type": "t_string_storage"
      },
      {
        "astId": 8,
        "contract": "contracts/SimpleSwap.sol:SimpleSwap",
        "label": "_owner",
        "offset": 0,
        "slot": "5",
        "type": "t_address"
      },
      {
        "astId": 956,
        "contract": "contracts/SimpleSwap.sol:SimpleSwap",
        "label": "reserves",
        "offset": 0,
        "slot": "6",
        "type": "t_mapping(t_address,t_mapping(t_address,t_struct(Reserve)949_storage))"
      }
    ],
    "types": {
      "t_address": {
        "encoding": "inplace",
        "label": "address",
        "numberOfBytes": "20"
      },
      "t_mapping(t_address,t_mapping(t_address,t_struct(Reserve)949_storage))": {
        "encoding": "mapping",
        "key": "t_address",
        "label": "mapping(address => mapping(address => struct SimpleSwap.Reserve))",
        "numberOfBytes": "32",
        "value": "t_mapping(t_address,t_struct(Reserve)949_storage)"
      },
      "t_mapping(t_address,t_mapping(t_address,t_uint256))": {
        "encoding": "mapping",
        "key": "t_address",
        "label": "mapping(address => mapping(address => uint256))",
        "numberOfBytes": "32",
        "value": "t_mapping(t_address,t_uint256)"
      },
      "t_mapping(t_address,t_struct(Reserve)949_storage)": {
        "encoding": "mapping",
        "key": "t_address",
        "label": "mapping(address => struct SimpleSwap.Reserve)",
        "numberOfBytes": "32",
        "value": "t_struct(Reserve)949_storage"
      },
      "t_mapping(t_address,t_uint256)": {
        "encoding": "mapping",
        "key": "t_address",
        "label": "mapping(address => uint256)",
        "numberOfBytes": "32",
        "value": "t_uint256"
      },
      "t_string_storage": {
        "encoding": "bytes",
        "label": "string",
        "numberOfBytes": "32"
      },
      "t_struct(Reserve)949_storage": {
        "encoding": "inplace",
        "label": "struct SimpleSwap.Reserve",
        "members": [
          {
            "astId": 946,
            "contract": "contracts/SimpleSwap.sol:SimpleSwap",
            "label": "reserve0",
            "offset": 0,
            "slot": "0",
            "type": "t_uint256"
          },
          {
            "astId": 948,
            "contract": "contracts/SimpleSwap.sol:SimpleSwap",
            "label": "reserve1",
            "offset": 0,
            "slot": "1",
            "type": "t_uint256"
          }
        ],
        "numberOfBytes": "64"
      },
      "t_uint256": {
        "encoding": "inplace",
        "label": "uint256",
        "numberOfBytes": "32"
      }
    }
  }
}